{
  "contractName": "SupplyChain",
  "abi": [
    {
      "inputs": [],
      "stateMutability": "payable",
      "type": "constructor"
    },
    {
      "anonymous": false,
      "inputs": [
        {
          "indexed": false,
          "internalType": "uint256",
          "name": "upc",
          "type": "uint256"
        }
      ],
      "name": "ForSale",
      "type": "event"
    },
    {
      "anonymous": false,
      "inputs": [
        {
          "indexed": false,
          "internalType": "uint256",
          "name": "upc",
          "type": "uint256"
        }
      ],
      "name": "Harvested",
      "type": "event"
    },
    {
      "anonymous": false,
      "inputs": [
        {
          "indexed": false,
          "internalType": "uint256",
          "name": "upc",
          "type": "uint256"
        }
      ],
      "name": "Packed",
      "type": "event"
    },
    {
      "anonymous": false,
      "inputs": [
        {
          "indexed": false,
          "internalType": "uint256",
          "name": "upc",
          "type": "uint256"
        }
      ],
      "name": "Processed",
      "type": "event"
    },
    {
      "anonymous": false,
      "inputs": [
        {
          "indexed": false,
          "internalType": "uint256",
          "name": "upc",
          "type": "uint256"
        }
      ],
      "name": "Purchased",
      "type": "event"
    },
    {
      "anonymous": false,
      "inputs": [
        {
          "indexed": false,
          "internalType": "uint256",
          "name": "upc",
          "type": "uint256"
        }
      ],
      "name": "Received",
      "type": "event"
    },
    {
      "anonymous": false,
      "inputs": [
        {
          "indexed": false,
          "internalType": "uint256",
          "name": "upc",
          "type": "uint256"
        }
      ],
      "name": "Shipped",
      "type": "event"
    },
    {
      "anonymous": false,
      "inputs": [
        {
          "indexed": false,
          "internalType": "uint256",
          "name": "upc",
          "type": "uint256"
        }
      ],
      "name": "Sold",
      "type": "event"
    },
    {
      "inputs": [],
      "name": "kill",
      "outputs": [],
      "stateMutability": "nonpayable",
      "type": "function"
    },
    {
      "inputs": [
        {
          "internalType": "uint256",
          "name": "_upc",
          "type": "uint256"
        },
        {
          "internalType": "address",
          "name": "_originFarmerID",
          "type": "address"
        },
        {
          "internalType": "string",
          "name": "_originFarmName",
          "type": "string"
        },
        {
          "internalType": "string",
          "name": "_originFarmInformation",
          "type": "string"
        },
        {
          "internalType": "string",
          "name": "_originFarmLatitude",
          "type": "string"
        },
        {
          "internalType": "string",
          "name": "_originFarmLongitude",
          "type": "string"
        },
        {
          "internalType": "string",
          "name": "_productNotes",
          "type": "string"
        }
      ],
      "name": "harvestItem",
      "outputs": [],
      "stateMutability": "nonpayable",
      "type": "function"
    },
    {
      "inputs": [
        {
          "internalType": "uint256",
          "name": "_upc",
          "type": "uint256"
        }
      ],
      "name": "processItem",
      "outputs": [],
      "stateMutability": "nonpayable",
      "type": "function"
    },
    {
      "inputs": [
        {
          "internalType": "uint256",
          "name": "_upc",
          "type": "uint256"
        }
      ],
      "name": "packItem",
      "outputs": [],
      "stateMutability": "nonpayable",
      "type": "function"
    },
    {
      "inputs": [
        {
          "internalType": "uint256",
          "name": "_upc",
          "type": "uint256"
        },
        {
          "internalType": "uint256",
          "name": "_price",
          "type": "uint256"
        }
      ],
      "name": "sellItem",
      "outputs": [],
      "stateMutability": "nonpayable",
      "type": "function"
    },
    {
      "inputs": [
        {
          "internalType": "uint256",
          "name": "_upc",
          "type": "uint256"
        }
      ],
      "name": "buyItem",
      "outputs": [],
      "stateMutability": "payable",
      "type": "function"
    },
    {
      "inputs": [
        {
          "internalType": "uint256",
          "name": "_upc",
          "type": "uint256"
        }
      ],
      "name": "shipItem",
      "outputs": [],
      "stateMutability": "nonpayable",
      "type": "function"
    },
    {
      "inputs": [
        {
          "internalType": "uint256",
          "name": "_upc",
          "type": "uint256"
        }
      ],
      "name": "receiveItem",
      "outputs": [],
      "stateMutability": "nonpayable",
      "type": "function"
    },
    {
      "inputs": [
        {
          "internalType": "uint256",
          "name": "_upc",
          "type": "uint256"
        }
      ],
      "name": "purchaseItem",
      "outputs": [],
      "stateMutability": "nonpayable",
      "type": "function"
    },
    {
      "inputs": [
        {
          "internalType": "uint256",
          "name": "_upc",
          "type": "uint256"
        }
      ],
      "name": "fetchItemBufferOne",
      "outputs": [
        {
          "internalType": "uint256",
          "name": "itemSKU",
          "type": "uint256"
        },
        {
          "internalType": "uint256",
          "name": "itemUPC",
          "type": "uint256"
        },
        {
          "internalType": "address",
          "name": "ownerID",
          "type": "address"
        },
        {
          "internalType": "address",
          "name": "originFarmerID",
          "type": "address"
        },
        {
          "internalType": "string",
          "name": "originFarmName",
          "type": "string"
        },
        {
          "internalType": "string",
          "name": "originFarmInformation",
          "type": "string"
        },
        {
          "internalType": "string",
          "name": "originFarmLatitude",
          "type": "string"
        },
        {
          "internalType": "string",
          "name": "originFarmLongitude",
          "type": "string"
        }
      ],
      "stateMutability": "view",
      "type": "function"
    },
    {
      "inputs": [
        {
          "internalType": "uint256",
          "name": "_upc",
          "type": "uint256"
        }
      ],
      "name": "fetchItemBufferTwo",
      "outputs": [
        {
          "internalType": "uint256",
          "name": "itemSKU",
          "type": "uint256"
        },
        {
          "internalType": "uint256",
          "name": "itemUPC",
          "type": "uint256"
        },
        {
          "internalType": "uint256",
          "name": "productID",
          "type": "uint256"
        },
        {
          "internalType": "string",
          "name": "productNotes",
          "type": "string"
        },
        {
          "internalType": "uint256",
          "name": "productPrice",
          "type": "uint256"
        },
        {
          "internalType": "uint256",
          "name": "itemState",
          "type": "uint256"
        },
        {
          "internalType": "address",
          "name": "distributorID",
          "type": "address"
        },
        {
          "internalType": "address",
          "name": "retailerID",
          "type": "address"
        },
        {
          "internalType": "address",
          "name": "consumerID",
          "type": "address"
        }
      ],
      "stateMutability": "view",
      "type": "function"
    }
  ],
  "bytecode": "0x6080604052336000806101000a81548173ffffffffffffffffffffffffffffffffffffffff021916908373ffffffffffffffffffffffffffffffffffffffff1602179055506001600281905550600180819055506121a4806100626000396000f3fe60806040526004361061009c5760003560e01c8063a26be99911610064578063a26be99914610193578063bdd8a6a8146101bc578063d38ea5bf146101e5578063e7fb74c71461020e578063f30fc4801461022a578063f61c899a146102535761009c565b80632d923561146100a157806341c0e1b5146100ca57806349dae766146100e157806366225ff91461010a57806377c459131461014f575b600080fd5b3480156100ad57600080fd5b506100c860048036038101906100c3919061187a565b61027c565b005b3480156100d657600080fd5b506100df6103dc565b005b3480156100ed57600080fd5b50610108600480360381019061010391906118ba565b61046a565b005b34801561011657600080fd5b50610131600480360381019061012c91906118ba565b6105ad565b604051610146999897969594939291906119d0565b60405180910390f35b34801561015b57600080fd5b50610176600480360381019061017191906118ba565b610b2f565b60405161018a989796959493929190611a64565b60405180910390f35b34801561019f57600080fd5b506101ba60048036038101906101b591906118ba565b61108d565b005b3480156101c857600080fd5b506101e360048036038101906101de9190611c5f565b611090565b005b3480156101f157600080fd5b5061020c600480360381019061020791906118ba565b611436565b005b610228600480360381019061022391906118ba565b611439565b005b34801561023657600080fd5b50610251600480360381019061024c91906118ba565b6116ea565b005b34801561025f57600080fd5b5061027a600480360381019061027591906118ba565b61182d565b005b816002600781111561029157610290611d8d565b5b60036000838152602001908152602001600020600b0160009054906101000a900460ff1660078111156102c7576102c6611d8d565b5b146102d157600080fd5b6003600084815260200190815260200160002060020160009054906101000a900473ffffffffffffffffffffffffffffffffffffffff168073ffffffffffffffffffffffffffffffffffffffff163373ffffffffffffffffffffffffffffffffffffffff161461034057600080fd5b60038060006001548152602001908152602001600020600b0160006101000a81548160ff0219169083600781111561037b5761037a611d8d565b5b021790555082600360006001548152602001908152602001600020600a01819055507fa96ae0fc3224ebd79eebfe54bd130cc9cb94416cddd1f2386115e00b725324686001546040516103ce9190611dbc565b60405180910390a150505050565b60008054906101000a900473ffffffffffffffffffffffffffffffffffffffff1673ffffffffffffffffffffffffffffffffffffffff163373ffffffffffffffffffffffffffffffffffffffff16036104685760008054906101000a900473ffffffffffffffffffffffffffffffffffffffff1673ffffffffffffffffffffffffffffffffffffffff16ff5b565b806000600781111561047f5761047e611d8d565b5b60036000838152602001908152602001600020600b0160009054906101000a900460ff1660078111156104b5576104b4611d8d565b5b146104bf57600080fd5b6003600083815260200190815260200160002060020160009054906101000a900473ffffffffffffffffffffffffffffffffffffffff168073ffffffffffffffffffffffffffffffffffffffff163373ffffffffffffffffffffffffffffffffffffffff161461052e57600080fd5b6001600360006001548152602001908152602001600020600b0160006101000a81548160ff0219169083600781111561056a57610569611d8d565b5b02179055507f5afe3b1bf87069693c075da5c22a98d63d1aef98a30dbbe538d0781a98b77ee56001546040516105a09190611dbc565b60405180910390a1505050565b60008060006060600080600080600080600360008c8152602001908152602001600020604051806101e001604052908160008201548152602001600182015481526020016002820160009054906101000a900473ffffffffffffffffffffffffffffffffffffffff1673ffffffffffffffffffffffffffffffffffffffff1673ffffffffffffffffffffffffffffffffffffffff1681526020016003820160009054906101000a900473ffffffffffffffffffffffffffffffffffffffff1673ffffffffffffffffffffffffffffffffffffffff1673ffffffffffffffffffffffffffffffffffffffff1681526020016004820180546106ac90611e06565b80601f01602080910402602001604051908101604052809291908181526020018280546106d890611e06565b80156107255780601f106106fa57610100808354040283529160200191610725565b820191906000526020600020905b81548152906001019060200180831161070857829003601f168201915b5050505050815260200160058201805461073e90611e06565b80601f016020809104026020016040519081016040528092919081815260200182805461076a90611e06565b80156107b75780601f1061078c576101008083540402835291602001916107b7565b820191906000526020600020905b81548152906001019060200180831161079a57829003601f168201915b505050505081526020016006820180546107d090611e06565b80601f01602080910402602001604051908101604052809291908181526020018280546107fc90611e06565b80156108495780601f1061081e57610100808354040283529160200191610849565b820191906000526020600020905b81548152906001019060200180831161082c57829003601f168201915b5050505050815260200160078201805461086290611e06565b80601f016020809104026020016040519081016040528092919081815260200182805461088e90611e06565b80156108db5780601f106108b0576101008083540402835291602001916108db565b820191906000526020600020905b8154815290600101906020018083116108be57829003601f168201915b50505050508152602001600882015481526020016009820180546108fe90611e06565b80601f016020809104026020016040519081016040528092919081815260200182805461092a90611e06565b80156109775780601f1061094c57610100808354040283529160200191610977565b820191906000526020600020905b81548152906001019060200180831161095a57829003601f168201915b50505050508152602001600a8201548152602001600b820160009054906101000a900460ff1660078111156109af576109ae611d8d565b5b60078111156109c1576109c0611d8d565b5b8152602001600b820160019054906101000a900473ffffffffffffffffffffffffffffffffffffffff1673ffffffffffffffffffffffffffffffffffffffff1673ffffffffffffffffffffffffffffffffffffffff168152602001600c820160009054906101000a900473ffffffffffffffffffffffffffffffffffffffff1673ffffffffffffffffffffffffffffffffffffffff1673ffffffffffffffffffffffffffffffffffffffff168152602001600d820160009054906101000a900473ffffffffffffffffffffffffffffffffffffffff1673ffffffffffffffffffffffffffffffffffffffff1673ffffffffffffffffffffffffffffffffffffffff1681525050905080600001519950806020015198508061010001519750806101200151965080610140015195508061016001516007811115610b0757610b06611d8d565b5b94508061018001519350806101a001519250806101c001519150509193959799909294969850565b6000806000806060806060806000600360008b8152602001908152602001600020604051806101e001604052908160008201548152602001600182015481526020016002820160009054906101000a900473ffffffffffffffffffffffffffffffffffffffff1673ffffffffffffffffffffffffffffffffffffffff1673ffffffffffffffffffffffffffffffffffffffff1681526020016003820160009054906101000a900473ffffffffffffffffffffffffffffffffffffffff1673ffffffffffffffffffffffffffffffffffffffff1673ffffffffffffffffffffffffffffffffffffffff168152602001600482018054610c2c90611e06565b80601f0160208091040260200160405190810160405280929190818152602001828054610c5890611e06565b8015610ca55780601f10610c7a57610100808354040283529160200191610ca5565b820191906000526020600020905b815481529060010190602001808311610c8857829003601f168201915b50505050508152602001600582018054610cbe90611e06565b80601f0160208091040260200160405190810160405280929190818152602001828054610cea90611e06565b8015610d375780601f10610d0c57610100808354040283529160200191610d37565b820191906000526020600020905b815481529060010190602001808311610d1a57829003601f168201915b50505050508152602001600682018054610d5090611e06565b80601f0160208091040260200160405190810160405280929190818152602001828054610d7c90611e06565b8015610dc95780601f10610d9e57610100808354040283529160200191610dc9565b820191906000526020600020905b815481529060010190602001808311610dac57829003601f168201915b50505050508152602001600782018054610de290611e06565b80601f0160208091040260200160405190810160405280929190818152602001828054610e0e90611e06565b8015610e5b5780601f10610e3057610100808354040283529160200191610e5b565b820191906000526020600020905b815481529060010190602001808311610e3e57829003601f168201915b5050505050815260200160088201548152602001600982018054610e7e90611e06565b80601f0160208091040260200160405190810160405280929190818152602001828054610eaa90611e06565b8015610ef75780601f10610ecc57610100808354040283529160200191610ef7565b820191906000526020600020905b815481529060010190602001808311610eda57829003601f168201915b50505050508152602001600a8201548152602001600b820160009054906101000a900460ff166007811115610f2f57610f2e611d8d565b5b6007811115610f4157610f40611d8d565b5b8152602001600b820160019054906101000a900473ffffffffffffffffffffffffffffffffffffffff1673ffffffffffffffffffffffffffffffffffffffff1673ffffffffffffffffffffffffffffffffffffffff168152602001600c820160009054906101000a900473ffffffffffffffffffffffffffffffffffffffff1673ffffffffffffffffffffffffffffffffffffffff1673ffffffffffffffffffffffffffffffffffffffff168152602001600d820160009054906101000a900473ffffffffffffffffffffffffffffffffffffffff1673ffffffffffffffffffffffffffffffffffffffff1673ffffffffffffffffffffffffffffffffffffffff1681525050905080600001519850806020015197508060400151965080606001519550806080015194508060a0015193508060c0015192508060e00151915050919395975091939597565b50565b6000604051806101e0016040528060025481526020018981526020013373ffffffffffffffffffffffffffffffffffffffff1681526020018873ffffffffffffffffffffffffffffffffffffffff16815260200187815260200186815260200185815260200184815260200160015460025461110c9190611e66565b8152602001838152602001600081526020016000600781111561113257611131611d8d565b5b8152602001600073ffffffffffffffffffffffffffffffffffffffff168152602001600073ffffffffffffffffffffffffffffffffffffffff168152602001600073ffffffffffffffffffffffffffffffffffffffff1681525090508760018190555080600360006001548152602001908152602001600020600082015181600001556020820151816001015560408201518160020160006101000a81548173ffffffffffffffffffffffffffffffffffffffff021916908373ffffffffffffffffffffffffffffffffffffffff16021790555060608201518160030160006101000a81548173ffffffffffffffffffffffffffffffffffffffff021916908373ffffffffffffffffffffffffffffffffffffffff16021790555060808201518160040190816112629190612068565b5060a08201518160050190816112789190612068565b5060c082015181600601908161128e9190612068565b5060e08201518160070190816112a49190612068565b5061010082015181600801556101208201518160090190816112c69190612068565b5061014082015181600a015561016082015181600b0160006101000a81548160ff021916908360078111156112fe576112fd611d8d565b5b021790555061018082015181600b0160016101000a81548173ffffffffffffffffffffffffffffffffffffffff021916908373ffffffffffffffffffffffffffffffffffffffff1602179055506101a082015181600c0160006101000a81548173ffffffffffffffffffffffffffffffffffffffff021916908373ffffffffffffffffffffffffffffffffffffffff1602179055506101c082015181600d0160006101000a81548173ffffffffffffffffffffffffffffffffffffffff021916908373ffffffffffffffffffffffffffffffffffffffff16021790555090505060016002546113ed9190611e66565b6002819055507f8e55ccfc9778ff8eba1646d765cf1982537ce0f9257054a17b48aad7452501836001546040516114249190611dbc565b60405180910390a15050505050505050565b50565b806003600781111561144e5761144d611d8d565b5b60036000838152602001908152602001600020600b0160009054906101000a900460ff16600781111561148457611483611d8d565b5b1461148e57600080fd5b60036000838152602001908152602001600020600a0154803410156114b257600080fd5b823360036000600154815260200190815260200160002060020160006101000a81548173ffffffffffffffffffffffffffffffffffffffff021916908373ffffffffffffffffffffffffffffffffffffffff16021790555033600360006001548152602001908152602001600020600b0160016101000a81548173ffffffffffffffffffffffffffffffffffffffff021916908373ffffffffffffffffffffffffffffffffffffffff1602179055506004600360006001548152602001908152602001600020600b0160006101000a81548160ff0219169083600781111561159d5761159c611d8d565b5b021790555060036000600154815260200190815260200160002060030160009054906101000a900473ffffffffffffffffffffffffffffffffffffffff1673ffffffffffffffffffffffffffffffffffffffff166108fc60036000878152602001908152602001600020600a01549081150290604051600060405180830381858888f19350505050158015611636573d6000803e3d6000fd5b507f92f64ca637d023f354075a4be751b169c1a8a9ccb6d33cdd0cb35205439957276001546040516116689190611dbc565b60405180910390a1600060036000838152602001908152602001600020600a0154905060008134611699919061213a565b90503373ffffffffffffffffffffffffffffffffffffffff166108fc829081150290604051600060405180830381858888f193505050501580156116e1573d6000803e3d6000fd5b50505050505050565b80600160078111156116ff576116fe611d8d565b5b60036000838152602001908152602001600020600b0160009054906101000a900460ff16600781111561173557611734611d8d565b5b1461173f57600080fd5b6003600083815260200190815260200160002060020160009054906101000a900473ffffffffffffffffffffffffffffffffffffffff168073ffffffffffffffffffffffffffffffffffffffff163373ffffffffffffffffffffffffffffffffffffffff16146117ae57600080fd5b6002600360006001548152602001908152602001600020600b0160006101000a81548160ff021916908360078111156117ea576117e9611d8d565b5b02179055507f9b3b66e2380b690bae22c73ef1428fb0c91e72fe14a4b6defa13035214187aff6001546040516118209190611dbc565b60405180910390a1505050565b50565b6000604051905090565b600080fd5b600080fd5b6000819050919050565b61185781611844565b811461186257600080fd5b50565b6000813590506118748161184e565b92915050565b600080604083850312156118915761189061183a565b5b600061189f85828601611865565b92505060206118b085828601611865565b9150509250929050565b6000602082840312156118d0576118cf61183a565b5b60006118de84828501611865565b91505092915050565b6118f081611844565b82525050565b600081519050919050565b600082825260208201905092915050565b60005b83811015611930578082015181840152602081019050611915565b8381111561193f576000848401525b50505050565b6000601f19601f8301169050919050565b6000611961826118f6565b61196b8185611901565b935061197b818560208601611912565b61198481611945565b840191505092915050565b600073ffffffffffffffffffffffffffffffffffffffff82169050919050565b60006119ba8261198f565b9050919050565b6119ca816119af565b82525050565b6000610120820190506119e6600083018c6118e7565b6119f3602083018b6118e7565b611a00604083018a6118e7565b8181036060830152611a128189611956565b9050611a2160808301886118e7565b611a2e60a08301876118e7565b611a3b60c08301866119c1565b611a4860e08301856119c1565b611a566101008301846119c1565b9a9950505050505050505050565b600061010082019050611a7a600083018b6118e7565b611a87602083018a6118e7565b611a9460408301896119c1565b611aa160608301886119c1565b8181036080830152611ab38187611956565b905081810360a0830152611ac78186611956565b905081810360c0830152611adb8185611956565b905081810360e0830152611aef8184611956565b90509998505050505050505050565b611b07816119af565b8114611b1257600080fd5b50565b600081359050611b2481611afe565b92915050565b600080fd5b600080fd5b7f4e487b7100000000000000000000000000000000000000000000000000000000600052604160045260246000fd5b611b6c82611945565b810181811067ffffffffffffffff82111715611b8b57611b8a611b34565b5b80604052505050565b6000611b9e611830565b9050611baa8282611b63565b919050565b600067ffffffffffffffff821115611bca57611bc9611b34565b5b611bd382611945565b9050602081019050919050565b82818337600083830152505050565b6000611c02611bfd84611baf565b611b94565b905082815260208101848484011115611c1e57611c1d611b2f565b5b611c29848285611be0565b509392505050565b600082601f830112611c4657611c45611b2a565b5b8135611c56848260208601611bef565b91505092915050565b600080600080600080600060e0888a031215611c7e57611c7d61183a565b5b6000611c8c8a828b01611865565b9750506020611c9d8a828b01611b15565b965050604088013567ffffffffffffffff811115611cbe57611cbd61183f565b5b611cca8a828b01611c31565b955050606088013567ffffffffffffffff811115611ceb57611cea61183f565b5b611cf78a828b01611c31565b945050608088013567ffffffffffffffff811115611d1857611d1761183f565b5b611d248a828b01611c31565b93505060a088013567ffffffffffffffff811115611d4557611d4461183f565b5b611d518a828b01611c31565b92505060c088013567ffffffffffffffff811115611d7257611d7161183f565b5b611d7e8a828b01611c31565b91505092959891949750929550565b7f4e487b7100000000000000000000000000000000000000000000000000000000600052602160045260246000fd5b6000602082019050611dd160008301846118e7565b92915050565b7f4e487b7100000000000000000000000000000000000000000000000000000000600052602260045260246000fd5b60006002820490506001821680611e1e57607f821691505b602082108103611e3157611e30611dd7565b5b50919050565b7f4e487b7100000000000000000000000000000000000000000000000000000000600052601160045260246000fd5b6000611e7182611844565b9150611e7c83611844565b9250827fffffffffffffffffffffffffffffffffffffffffffffffffffffffffffffffff03821115611eb157611eb0611e37565b5b828201905092915050565b60008190508160005260206000209050919050565b60006020601f8301049050919050565b600082821b905092915050565b600060088302611f1e7fffffffffffffffffffffffffffffffffffffffffffffffffffffffffffffffff82611ee1565b611f288683611ee1565b95508019841693508086168417925050509392505050565b6000819050919050565b6000611f65611f60611f5b84611844565b611f40565b611844565b9050919050565b6000819050919050565b611f7f83611f4a565b611f93611f8b82611f6c565b848454611eee565b825550505050565b600090565b611fa8611f9b565b611fb3818484611f76565b505050565b5b81811015611fd757611fcc600082611fa0565b600181019050611fb9565b5050565b601f82111561201c57611fed81611ebc565b611ff684611ed1565b81016020851015612005578190505b61201961201185611ed1565b830182611fb8565b50505b505050565b600082821c905092915050565b600061203f60001984600802612021565b1980831691505092915050565b6000612058838361202e565b9150826002028217905092915050565b612071826118f6565b67ffffffffffffffff81111561208a57612089611b34565b5b6120948254611e06565b61209f828285611fdb565b600060209050601f8311600181146120d257600084156120c0578287015190505b6120ca858261204c565b865550612132565b601f1984166120e086611ebc565b60005b82811015612108578489015182556001820191506020850194506020810190506120e3565b868310156121255784890151612121601f89168261202e565b8355505b6001600288020188555050505b505050505050565b600061214582611844565b915061215083611844565b92508282101561216357612162611e37565b5b82820390509291505056fea264697066735822122038a2d6b4f0a977f70d44465aafc693cb7fccdc49a31dc346bc3d81ea91c8482364736f6c634300080f0033",
  "immutableReferences": {},
  "source": "// SPDX-License-Identifier: UNLICENSED\n\npragma solidity ^0.8.15;\n\n// Define a contract 'Supplychain'\ncontract SupplyChain {\n    // Define 'owner'\n    address payable owner;\n\n    // Define a variable called 'upc' for Universal Product Code (UPC)\n    uint upc;\n\n    // Define a variable called 'sku' for Stock Keeping Unit (SKU)\n    uint sku;\n\n    // Define a public mapping 'items' that maps the UPC to an Item.\n    mapping(uint => Item) items;\n\n    // Define a public mapping 'itemsHistory' that maps the UPC to an array of TxHash,\n    // that track its journey through the supply chain -- to be sent from DApp.\n    mapping(uint => string[]) itemsHistory;\n\n    // Define enum 'State' with the following values:\n    enum State {\n        Harvested, // 0\n        Processed, // 1\n        Packed, // 2\n        ForSale, // 3\n        Sold, // 4\n        Shipped, // 5\n        Received, // 6\n        Purchased // 7\n    }\n\n    State constant defaultState = State.Harvested;\n\n    // Define a struct 'Item' with the following fields:\n    struct Item {\n        uint sku; // Stock Keeping Unit (SKU)\n        uint upc; // Universal Product Code (UPC), generated by the Farmer, goes on the package, can be verified by the Consumer\n        address ownerID; // Metamask-Ethereum address of the current owner as the product moves through 8 stages\n        address originFarmerID; // Metamask-Ethereum address of the Farmer\n        string originFarmName; // Farmer Name\n        string originFarmInformation; // Farmer Information\n        string originFarmLatitude; // Farm Latitude\n        string originFarmLongitude; // Farm Longitude\n        uint productID; // Product ID potentially a combination of upc + sku\n        string productNotes; // Product Notes\n        uint productPrice; // Product Price\n        State itemState; // Product State as represented in the enum above\n        address distributorID; // Metamask-Ethereum address of the Distributor\n        address retailerID; // Metamask-Ethereum address of the Retailer\n        address payable consumerID; // Metamask-Ethereum address of the Consumer\n    }\n\n    // Define 8 events with the same 8 state values and accept 'upc' as input argument\n    event Harvested(uint upc);\n    event Processed(uint upc);\n    event Packed(uint upc);\n    event ForSale(uint upc);\n    event Sold(uint upc);\n    event Shipped(uint upc);\n    event Received(uint upc);\n    event Purchased(uint upc);\n\n    // Define a modifer that checks to see if msg.sender == owner of the contract\n    modifier onlyOwner() {\n        require(msg.sender == owner);\n        _;\n    }\n\n    // Define a modifer that verifies the Caller\n    modifier verifyCaller(address _address) {\n        require(msg.sender == _address);\n        _;\n    }\n\n    // Define a modifier that checks if the paid amount is sufficient to cover the price\n    modifier paidEnough(uint _price) {\n        require(msg.value >= _price);\n        _;\n    }\n\n    // Define a modifier that checks the price and refunds the remaining balance\n    modifier checkValue(uint _upc) {\n        _;\n        uint _price = items[_upc].productPrice;\n        uint amountToReturn = msg.value - _price;\n        payable(msg.sender).transfer(amountToReturn);\n    }\n\n    // Define a modifier that checks if an item.state of a upc is Harvested\n    modifier harvested(uint _upc) {\n        require(items[_upc].itemState == State.Harvested);\n        _;\n    }\n\n    // Define a modifier that checks if an item.state of a upc is Processed\n    modifier processed(uint _upc) {\n        require(items[_upc].itemState == State.Processed);\n        _;\n    }\n\n    // Define a modifier that checks if an item.state of a upc is Packed\n    modifier packed(uint _upc) {\n        require(items[_upc].itemState == State.Packed);\n        _;\n    }\n\n    // Define a modifier that checks if an item.state of a upc is ForSale\n    modifier forSale(uint _upc) {\n        require(items[_upc].itemState == State.ForSale);\n        _;\n    }\n\n    // Define a modifier that checks if an item.state of a upc is Sold\n    modifier sold(uint _upc) {\n        require(items[_upc].itemState == State.Sold);\n        _;\n    }\n\n    // Define a modifier that checks if an item.state of a upc is Shipped\n    modifier shipped(uint _upc) {\n        require(items[_upc].itemState == State.Shipped);\n        _;\n    }\n\n    // Define a modifier that checks if an item.state of a upc is Received\n    modifier received(uint _upc) {\n        require(items[_upc].itemState == State.Received);\n        _;\n    }\n\n    // Define a modifier that checks if an item.state of a upc is Purchased\n    modifier purchased(uint _upc) {\n        require(items[_upc].itemState == State.Purchased);\n        _;\n    }\n\n    // In the constructor set 'owner' to the address that instantiated the contract\n    // and set 'sku' to 1\n    // and set 'upc' to 1\n    constructor() payable {\n        owner = payable(msg.sender);\n        sku = 1;\n        upc = 1;\n    }\n\n    // Define a function 'kill' if required\n    function kill() public {\n        if (msg.sender == owner) {\n            selfdestruct(owner);\n        }\n    }\n\n    // Define a function 'harvestItem' that allows a farmer to mark an item 'Harvested'\n    function harvestItem(\n        uint _upc,\n        address _originFarmerID,\n        string memory _originFarmName,\n        string memory _originFarmInformation,\n        string memory _originFarmLatitude,\n        string memory _originFarmLongitude,\n        string memory _productNotes\n    ) public {\n        // Add the new item as part of Harvest\n        Item memory item = Item({\n            sku: sku,\n            upc: _upc,\n            ownerID: msg.sender,\n            originFarmerID: _originFarmerID,\n            originFarmName: _originFarmName,\n            originFarmInformation: _originFarmInformation,\n            originFarmLatitude: _originFarmLatitude,\n            originFarmLongitude: _originFarmLongitude,\n            productID: sku + upc,\n            productNotes: _productNotes,\n            productPrice: 0,\n            itemState: State.Harvested,\n            distributorID: payable(0),\n            retailerID: payable(0),\n            consumerID: payable(0)\n        });\n        upc = _upc;\n        items[upc] = item;\n\n        // Increment sku\n        sku = sku + 1;\n\n        // Emit the appropriate event\n        emit Harvested(upc);\n    }\n\n    // Define a function 'processItem' that allows a farmer to mark an item 'Processed'\n    // Call modifier to check if upc has passed previous supply chain stage\n    // Call modifier to verify caller of this function\n    function processItem(uint _upc)\n        public\n        harvested(_upc)\n        verifyCaller(items[_upc].ownerID)\n    {\n        // Update the appropriate fields\n        items[upc].itemState = State.Processed;\n\n        // Emit the appropriate event\n        emit Processed(upc);\n    }\n\n    // Define a function 'packItem' that allows a farmer to mark an item 'Packed'\n    // Call modifier to check if upc has passed previous supply chain stage\n    // Call modifier to verify caller of this function\n    function packItem(uint _upc)\n        public\n        processed(_upc)\n        verifyCaller(items[_upc].ownerID)\n    {\n        // Update the appropriate fields\n        items[upc].itemState = State.Packed;\n\n        // Emit the appropriate event\n        emit Packed(upc);\n    }\n\n    // Define a function 'sellItem' that allows a farmer to mark an item 'ForSale'\n    // Call modifier to check if upc has passed previous supply chain stage\n    // Call modifier to verify caller of this function\n    function sellItem(uint _upc, uint _price)\n        public\n        packed(_upc)\n        verifyCaller(items[_upc].ownerID)\n    {\n        // Update the appropriate fields\n        items[upc].itemState = State.ForSale;\n        items[upc].productPrice = _price;\n\n        // Emit the appropriate event\n        emit ForSale(upc);\n    }\n\n    // Define a function 'buyItem' that allows the disributor to mark an item 'Sold'\n    // Use the above defined modifiers to check if the item is available for sale, if the buyer has paid enough,\n    // and any excess ether sent is refunded back to the buyer\n    // Call modifier to check if upc has passed previous supply chain stage\n    // Call modifer to check if buyer has paid enough\n    // Call modifer to send any excess ether back to buyer\n    function buyItem(uint _upc)\n        public\n        payable\n        forSale(_upc)\n        paidEnough(items[_upc].productPrice)\n        checkValue(_upc)\n    {\n        // Update the appropriate fields - ownerID, distributorID, itemState\n        items[upc].ownerID = msg.sender;\n        items[upc].distributorID = msg.sender;\n        items[upc].itemState = State.Sold;\n\n        // Transfer money to farmer\n        payable(items[upc].originFarmerID).transfer(items[_upc].productPrice);\n\n        // emit the appropriate event\n        emit Sold(upc);\n    }\n\n    // Define a function 'shipItem' that allows the distributor to mark an item 'Shipped'\n    // Use the above modifers to check if the item is sold\n    function shipItem(uint _upc)\n        public\n    // Call modifier to check if upc has passed previous supply chain stage\n\n    // Call modifier to verify caller of this function\n\n    {\n        // Update the appropriate fields\n        // Emit the appropriate event\n    }\n\n    // Define a function 'receiveItem' that allows the retailer to mark an item 'Received'\n    // Use the above modifiers to check if the item is shipped\n    function receiveItem(uint _upc)\n        public\n    // Call modifier to check if upc has passed previous supply chain stage\n\n    // Access Control List enforced by calling Smart Contract / DApp\n    {\n        // Update the appropriate fields - ownerID, retailerID, itemState\n        // Emit the appropriate event\n    }\n\n    // Define a function 'purchaseItem' that allows the consumer to mark an item 'Purchased'\n    // Use the above modifiers to check if the item is received\n    function purchaseItem(uint _upc)\n        public\n    // Call modifier to check if upc has passed previous supply chain stage\n\n    // Access Control List enforced by calling Smart Contract / DApp\n    {\n        // Update the appropriate fields - ownerID, consumerID, itemState\n        // Emit the appropriate event\n    }\n\n    // Define a function 'fetchItemBufferOne' that fetches the data\n    function fetchItemBufferOne(uint _upc)\n        public\n        view\n        returns (\n            uint itemSKU,\n            uint itemUPC,\n            address ownerID,\n            address originFarmerID,\n            string memory originFarmName,\n            string memory originFarmInformation,\n            string memory originFarmLatitude,\n            string memory originFarmLongitude\n        )\n    {\n        // Assign values to the 8 parameters\n        Item memory item = items[_upc];\n        itemSKU = item.sku;\n        itemUPC = item.upc;\n        ownerID = item.ownerID;\n        originFarmerID = item.originFarmerID;\n        originFarmName = item.originFarmName;\n        originFarmInformation = item.originFarmInformation;\n        originFarmLatitude = item.originFarmLatitude;\n        originFarmLongitude = item.originFarmLongitude;\n\n        return (\n            itemSKU,\n            itemUPC,\n            ownerID,\n            originFarmerID,\n            originFarmName,\n            originFarmInformation,\n            originFarmLatitude,\n            originFarmLongitude\n        );\n    }\n\n    // Define a function 'fetchItemBufferTwo' that fetches the data\n    function fetchItemBufferTwo(uint _upc)\n        public\n        view\n        returns (\n            uint itemSKU,\n            uint itemUPC,\n            uint productID,\n            string memory productNotes,\n            uint productPrice,\n            uint itemState,\n            address distributorID,\n            address retailerID,\n            address consumerID\n        )\n    {\n        // Assign values to the 9 parameters\n        Item memory item = items[_upc];\n        itemSKU = item.sku;\n        itemUPC = item.upc;\n        productID = item.productID;\n        productNotes = item.productNotes;\n        productPrice = item.productPrice;\n        itemState = uint256(item.itemState);\n        distributorID = item.distributorID;\n        retailerID = item.retailerID;\n        consumerID = item.consumerID;\n\n        return (\n            itemSKU,\n            itemUPC,\n            productID,\n            productNotes,\n            productPrice,\n            itemState,\n            distributorID,\n            retailerID,\n            consumerID\n        );\n    }\n}\n",
  "sourcePath": "/home/marceljm/blockchain-projects/supply-chain-dapp/contracts/coffeebase/SupplyChain.sol",
  "compiler": {
    "name": "solc",
    "version": "0.8.15+commit.e14f2714.Emscripten.clang"
  },
  "schemaVersion": "3.4.8",
  "updatedAt": "2022-07-30T13:28:40.405Z",
  "devdoc": {
    "kind": "dev",
    "methods": {},
    "version": 1
  },
  "userdoc": {
    "kind": "user",
    "methods": {},
    "version": 1
  }
}