{
  "contractName": "SupplyChain",
  "abi": [
    {
      "inputs": [],
      "stateMutability": "payable",
      "type": "constructor"
    },
    {
      "anonymous": false,
      "inputs": [
        {
          "indexed": false,
          "internalType": "uint256",
          "name": "upc",
          "type": "uint256"
        }
      ],
      "name": "ForSale",
      "type": "event"
    },
    {
      "anonymous": false,
      "inputs": [
        {
          "indexed": false,
          "internalType": "uint256",
          "name": "upc",
          "type": "uint256"
        }
      ],
      "name": "Harvested",
      "type": "event"
    },
    {
      "anonymous": false,
      "inputs": [
        {
          "indexed": false,
          "internalType": "uint256",
          "name": "upc",
          "type": "uint256"
        }
      ],
      "name": "Packed",
      "type": "event"
    },
    {
      "anonymous": false,
      "inputs": [
        {
          "indexed": false,
          "internalType": "uint256",
          "name": "upc",
          "type": "uint256"
        }
      ],
      "name": "Processed",
      "type": "event"
    },
    {
      "anonymous": false,
      "inputs": [
        {
          "indexed": false,
          "internalType": "uint256",
          "name": "upc",
          "type": "uint256"
        }
      ],
      "name": "Purchased",
      "type": "event"
    },
    {
      "anonymous": false,
      "inputs": [
        {
          "indexed": false,
          "internalType": "uint256",
          "name": "upc",
          "type": "uint256"
        }
      ],
      "name": "Received",
      "type": "event"
    },
    {
      "anonymous": false,
      "inputs": [
        {
          "indexed": false,
          "internalType": "uint256",
          "name": "upc",
          "type": "uint256"
        }
      ],
      "name": "Shipped",
      "type": "event"
    },
    {
      "anonymous": false,
      "inputs": [
        {
          "indexed": false,
          "internalType": "uint256",
          "name": "upc",
          "type": "uint256"
        }
      ],
      "name": "Sold",
      "type": "event"
    },
    {
      "inputs": [],
      "name": "kill",
      "outputs": [],
      "stateMutability": "nonpayable",
      "type": "function"
    },
    {
      "inputs": [],
      "name": "harvestItem",
      "outputs": [],
      "stateMutability": "nonpayable",
      "type": "function"
    },
    {
      "inputs": [
        {
          "internalType": "uint256",
          "name": "_upc",
          "type": "uint256"
        }
      ],
      "name": "processItem",
      "outputs": [],
      "stateMutability": "nonpayable",
      "type": "function"
    },
    {
      "inputs": [
        {
          "internalType": "uint256",
          "name": "_upc",
          "type": "uint256"
        }
      ],
      "name": "packItem",
      "outputs": [],
      "stateMutability": "nonpayable",
      "type": "function"
    },
    {
      "inputs": [
        {
          "internalType": "uint256",
          "name": "_upc",
          "type": "uint256"
        },
        {
          "internalType": "uint256",
          "name": "_price",
          "type": "uint256"
        }
      ],
      "name": "sellItem",
      "outputs": [],
      "stateMutability": "nonpayable",
      "type": "function"
    },
    {
      "inputs": [
        {
          "internalType": "uint256",
          "name": "_upc",
          "type": "uint256"
        }
      ],
      "name": "buyItem",
      "outputs": [],
      "stateMutability": "payable",
      "type": "function"
    },
    {
      "inputs": [
        {
          "internalType": "uint256",
          "name": "_upc",
          "type": "uint256"
        }
      ],
      "name": "shipItem",
      "outputs": [],
      "stateMutability": "nonpayable",
      "type": "function"
    },
    {
      "inputs": [
        {
          "internalType": "uint256",
          "name": "_upc",
          "type": "uint256"
        }
      ],
      "name": "receiveItem",
      "outputs": [],
      "stateMutability": "nonpayable",
      "type": "function"
    },
    {
      "inputs": [
        {
          "internalType": "uint256",
          "name": "_upc",
          "type": "uint256"
        }
      ],
      "name": "purchaseItem",
      "outputs": [],
      "stateMutability": "nonpayable",
      "type": "function"
    },
    {
      "inputs": [],
      "name": "fetchItemBufferOne",
      "outputs": [
        {
          "internalType": "uint256",
          "name": "itemSKU",
          "type": "uint256"
        },
        {
          "internalType": "uint256",
          "name": "itemUPC",
          "type": "uint256"
        },
        {
          "internalType": "address",
          "name": "ownerID",
          "type": "address"
        },
        {
          "internalType": "address",
          "name": "originFarmerID",
          "type": "address"
        },
        {
          "internalType": "string",
          "name": "originFarmName",
          "type": "string"
        },
        {
          "internalType": "string",
          "name": "originFarmInformation",
          "type": "string"
        },
        {
          "internalType": "string",
          "name": "originFarmLatitude",
          "type": "string"
        },
        {
          "internalType": "string",
          "name": "originFarmLongitude",
          "type": "string"
        }
      ],
      "stateMutability": "pure",
      "type": "function"
    },
    {
      "inputs": [],
      "name": "fetchItemBufferTwo",
      "outputs": [
        {
          "internalType": "uint256",
          "name": "itemSKU",
          "type": "uint256"
        },
        {
          "internalType": "uint256",
          "name": "itemUPC",
          "type": "uint256"
        },
        {
          "internalType": "uint256",
          "name": "productID",
          "type": "uint256"
        },
        {
          "internalType": "string",
          "name": "productNotes",
          "type": "string"
        },
        {
          "internalType": "uint256",
          "name": "productPrice",
          "type": "uint256"
        },
        {
          "internalType": "uint256",
          "name": "itemState",
          "type": "uint256"
        },
        {
          "internalType": "address",
          "name": "distributorID",
          "type": "address"
        },
        {
          "internalType": "address",
          "name": "retailerID",
          "type": "address"
        },
        {
          "internalType": "address",
          "name": "consumerID",
          "type": "address"
        }
      ],
      "stateMutability": "pure",
      "type": "function"
    }
  ],
  "bytecode": "0x6080604052336000806101000a81548173ffffffffffffffffffffffffffffffffffffffff021916908373ffffffffffffffffffffffffffffffffffffffff1602179055506001600281905550600180819055506106aa806100626000396000f3fe60806040526004361061009c5760003560e01c80639644c68a116100645780639644c68a14610153578063a26be99914610186578063d38ea5bf146101af578063e7fb74c7146101d8578063f30fc480146101f4578063f61c899a1461021d5761009c565b80630e747466146100a15780632d923561146100d35780633248b951146100fc57806341c0e1b51461011357806349dae7661461012a575b600080fd5b3480156100ad57600080fd5b506100b6610246565b6040516100ca989796959493929190610423565b60405180910390f35b3480156100df57600080fd5b506100fa60048036038101906100f591906104ee565b61025b565b005b34801561010857600080fd5b5061011161025f565b005b34801561011f57600080fd5b50610128610276565b005b34801561013657600080fd5b50610151600480360381019061014c919061052e565b610304565b005b34801561015f57600080fd5b50610168610307565b60405161017d9998979695949392919061055b565b60405180910390f35b34801561019257600080fd5b506101ad60048036038101906101a8919061052e565b610321565b005b3480156101bb57600080fd5b506101d660048036038101906101d1919061052e565b610324565b005b6101f260048036038101906101ed919061052e565b610327565b005b34801561020057600080fd5b5061021b6004803603810190610216919061052e565b61032a565b005b34801561022957600080fd5b50610244600480360381019061023f919061052e565b61032d565b005b60008060008060608060608091929394959697565b5050565b600160025461026e919061061e565b600281905550565b60008054906101000a900473ffffffffffffffffffffffffffffffffffffffff1673ffffffffffffffffffffffffffffffffffffffff163373ffffffffffffffffffffffffffffffffffffffff16036103025760008054906101000a900473ffffffffffffffffffffffffffffffffffffffff1673ffffffffffffffffffffffffffffffffffffffff16ff5b565b50565b600080600060606000806000806000909192939495969798565b50565b50565b50565b50565b50565b6000819050919050565b61034381610330565b82525050565b600073ffffffffffffffffffffffffffffffffffffffff82169050919050565b600061037482610349565b9050919050565b61038481610369565b82525050565b600081519050919050565b600082825260208201905092915050565b60005b838110156103c45780820151818401526020810190506103a9565b838111156103d3576000848401525b50505050565b6000601f19601f8301169050919050565b60006103f58261038a565b6103ff8185610395565b935061040f8185602086016103a6565b610418816103d9565b840191505092915050565b600061010082019050610439600083018b61033a565b610446602083018a61033a565b610453604083018961037b565b610460606083018861037b565b818103608083015261047281876103ea565b905081810360a083015261048681866103ea565b905081810360c083015261049a81856103ea565b905081810360e08301526104ae81846103ea565b90509998505050505050505050565b600080fd5b6104cb81610330565b81146104d657600080fd5b50565b6000813590506104e8816104c2565b92915050565b60008060408385031215610505576105046104bd565b5b6000610513858286016104d9565b9250506020610524858286016104d9565b9150509250929050565b600060208284031215610544576105436104bd565b5b6000610552848285016104d9565b91505092915050565b600061012082019050610571600083018c61033a565b61057e602083018b61033a565b61058b604083018a61033a565b818103606083015261059d81896103ea565b90506105ac608083018861033a565b6105b960a083018761033a565b6105c660c083018661037b565b6105d360e083018561037b565b6105e161010083018461037b565b9a9950505050505050505050565b7f4e487b7100000000000000000000000000000000000000000000000000000000600052601160045260246000fd5b600061062982610330565b915061063483610330565b9250827fffffffffffffffffffffffffffffffffffffffffffffffffffffffffffffffff03821115610669576106686105ef565b5b82820190509291505056fea264697066735822122094b267ff5a950db8cb5b2850b1d92dba95057753b61c49c9adb8e7c033bc02dc64736f6c634300080f0033",
  "immutableReferences": {},
  "source": "// SPDX-License-Identifier: UNLICENSED\n\npragma solidity ^0.8.15;\n\n// Define a contract 'Supplychain'\ncontract SupplyChain {\n    // Define 'owner'\n    address payable owner;\n\n    // Define a variable called 'upc' for Universal Product Code (UPC)\n    uint upc;\n\n    // Define a variable called 'sku' for Stock Keeping Unit (SKU)\n    uint sku;\n\n    // Define a public mapping 'items' that maps the UPC to an Item.\n    mapping(uint => Item) items;\n\n    // Define a public mapping 'itemsHistory' that maps the UPC to an array of TxHash,\n    // that track its journey through the supply chain -- to be sent from DApp.\n    mapping(uint => string[]) itemsHistory;\n\n    // Define enum 'State' with the following values:\n    enum State {\n        Harvested, // 0\n        Processed, // 1\n        Packed, // 2\n        ForSale, // 3\n        Sold, // 4\n        Shipped, // 5\n        Received, // 6\n        Purchased // 7\n    }\n\n    State constant defaultState = State.Harvested;\n\n    // Define a struct 'Item' with the following fields:\n    struct Item {\n        uint sku; // Stock Keeping Unit (SKU)\n        uint upc; // Universal Product Code (UPC), generated by the Farmer, goes on the package, can be verified by the Consumer\n        address ownerID; // Metamask-Ethereum address of the current owner as the product moves through 8 stages\n        address originFarmerID; // Metamask-Ethereum address of the Farmer\n        string originFarmName; // Farmer Name\n        string originFarmInformation; // Farmer Information\n        string originFarmLatitude; // Farm Latitude\n        string originFarmLongitude; // Farm Longitude\n        uint productID; // Product ID potentially a combination of upc + sku\n        string productNotes; // Product Notes\n        uint productPrice; // Product Price\n        State itemState; // Product State as represented in the enum above\n        address distributorID; // Metamask-Ethereum address of the Distributor\n        address retailerID; // Metamask-Ethereum address of the Retailer\n        address payable consumerID; // Metamask-Ethereum address of the Consumer\n    }\n\n    // Define 8 events with the same 8 state values and accept 'upc' as input argument\n    event Harvested(uint upc);\n    event Processed(uint upc);\n    event Packed(uint upc);\n    event ForSale(uint upc);\n    event Sold(uint upc);\n    event Shipped(uint upc);\n    event Received(uint upc);\n    event Purchased(uint upc);\n\n    // Define a modifer that checks to see if msg.sender == owner of the contract\n    modifier onlyOwner() {\n        require(msg.sender == owner);\n        _;\n    }\n\n    // Define a modifer that verifies the Caller\n    modifier verifyCaller(address _address) {\n        require(msg.sender == _address);\n        _;\n    }\n\n    // Define a modifier that checks if the paid amount is sufficient to cover the price\n    modifier paidEnough(uint _price) {\n        require(msg.value >= _price);\n        _;\n    }\n\n    // Define a modifier that checks the price and refunds the remaining balance\n    modifier checkValue(uint _upc) {\n        _;\n        uint _price = items[_upc].productPrice;\n        uint amountToReturn = msg.value - _price;\n        items[_upc].consumerID.transfer(amountToReturn);\n    }\n\n    // Define a modifier that checks if an item.state of a upc is Harvested\n    modifier harvested(uint _upc) {\n        require(items[_upc].itemState == State.Harvested);\n        _;\n    }\n\n    // Define a modifier that checks if an item.state of a upc is Processed\n    modifier processed(uint _upc) {\n        _;\n    }\n\n    // Define a modifier that checks if an item.state of a upc is Packed\n    modifier packed(uint _upc) {\n        _;\n    }\n\n    // Define a modifier that checks if an item.state of a upc is ForSale\n    modifier forSale(uint _upc) {\n        _;\n    }\n\n    // Define a modifier that checks if an item.state of a upc is Sold\n    modifier sold(uint _upc) {\n        _;\n    }\n\n    // Define a modifier that checks if an item.state of a upc is Shipped\n    modifier shipped(uint _upc) {\n        _;\n    }\n\n    // Define a modifier that checks if an item.state of a upc is Received\n    modifier received(uint _upc) {\n        _;\n    }\n\n    // Define a modifier that checks if an item.state of a upc is Purchased\n    modifier purchased(uint _upc) {\n        _;\n    }\n\n    // In the constructor set 'owner' to the address that instantiated the contract\n    // and set 'sku' to 1\n    // and set 'upc' to 1\n    constructor() payable {\n        owner = payable(msg.sender);\n        sku = 1;\n        upc = 1;\n    }\n\n    // Define a function 'kill' if required\n    function kill() public {\n        if (msg.sender == owner) {\n            selfdestruct(owner);\n        }\n    }\n\n    // Define a function 'harvestItem' that allows a farmer to mark an item 'Harvested'\n    function harvestItem(\n        // uint _upc,\n        // address _originFarmerID,\n        // string memory _originFarmName,\n        // string memory _originFarmInformation,\n        // string memory _originFarmLatitude,\n        // string memory _originFarmLongitude,\n        // string memory _productNotes\n    ) public {\n        // Add the new item as part of Harvest\n\n        // Increment sku\n        sku = sku + 1;\n        // Emit the appropriate event\n    }\n\n    // Define a function 'processtItem' that allows a farmer to mark an item 'Processed'\n    function processItem(uint _upc)\n        public\n    // Call modifier to check if upc has passed previous supply chain stage\n\n    // Call modifier to verify caller of this function\n\n    {\n        // Update the appropriate fields\n        // Emit the appropriate event\n    }\n\n    // Define a function 'packItem' that allows a farmer to mark an item 'Packed'\n    function packItem(uint _upc)\n        public\n    // Call modifier to check if upc has passed previous supply chain stage\n\n    // Call modifier to verify caller of this function\n\n    {\n        // Update the appropriate fields\n        // Emit the appropriate event\n    }\n\n    // Define a function 'sellItem' that allows a farmer to mark an item 'ForSale'\n    function sellItem(uint _upc, uint _price)\n        public\n    // Call modifier to check if upc has passed previous supply chain stage\n\n    // Call modifier to verify caller of this function\n\n    {\n        // Update the appropriate fields\n        // Emit the appropriate event\n    }\n\n    // Define a function 'buyItem' that allows the disributor to mark an item 'Sold'\n    // Use the above defined modifiers to check if the item is available for sale, if the buyer has paid enough,\n    // and any excess ether sent is refunded back to the buyer\n    function buyItem(uint _upc)\n        public\n        payable\n    // Call modifier to check if upc has passed previous supply chain stage\n\n    // Call modifer to check if buyer has paid enough\n\n    // Call modifer to send any excess ether back to buyer\n\n    {\n        // Update the appropriate fields - ownerID, distributorID, itemState\n        // Transfer money to farmer\n        // emit the appropriate event\n    }\n\n    // Define a function 'shipItem' that allows the distributor to mark an item 'Shipped'\n    // Use the above modifers to check if the item is sold\n    function shipItem(uint _upc)\n        public\n    // Call modifier to check if upc has passed previous supply chain stage\n\n    // Call modifier to verify caller of this function\n\n    {\n        // Update the appropriate fields\n        // Emit the appropriate event\n    }\n\n    // Define a function 'receiveItem' that allows the retailer to mark an item 'Received'\n    // Use the above modifiers to check if the item is shipped\n    function receiveItem(uint _upc)\n        public\n    // Call modifier to check if upc has passed previous supply chain stage\n\n    // Access Control List enforced by calling Smart Contract / DApp\n    {\n        // Update the appropriate fields - ownerID, retailerID, itemState\n        // Emit the appropriate event\n    }\n\n    // Define a function 'purchaseItem' that allows the consumer to mark an item 'Purchased'\n    // Use the above modifiers to check if the item is received\n    function purchaseItem(uint _upc)\n        public\n    // Call modifier to check if upc has passed previous supply chain stage\n\n    // Access Control List enforced by calling Smart Contract / DApp\n    {\n        // Update the appropriate fields - ownerID, consumerID, itemState\n        // Emit the appropriate event\n    }\n\n    // Define a function 'fetchItemBufferOne' that fetches the data\n    // function fetchItemBufferOne(uint _upc)\n    function fetchItemBufferOne()\n        public\n        // view\n        pure\n        returns (\n            uint itemSKU,\n            uint itemUPC,\n            address ownerID,\n            address originFarmerID,\n            string memory originFarmName,\n            string memory originFarmInformation,\n            string memory originFarmLatitude,\n            string memory originFarmLongitude\n        )\n    {\n        // Assign values to the 8 parameters\n\n        return (\n            itemSKU,\n            itemUPC,\n            ownerID,\n            originFarmerID,\n            originFarmName,\n            originFarmInformation,\n            originFarmLatitude,\n            originFarmLongitude\n        );\n    }\n\n    // Define a function 'fetchItemBufferTwo' that fetches the data\n    // function fetchItemBufferTwo(uint _upc)\n    function fetchItemBufferTwo()\n        public\n        // view\n        pure\n        returns (\n            uint itemSKU,\n            uint itemUPC,\n            uint productID,\n            string memory productNotes,\n            uint productPrice,\n            uint itemState,\n            address distributorID,\n            address retailerID,\n            address consumerID\n        )\n    {\n        // Assign values to the 9 parameters\n\n        return (\n            itemSKU,\n            itemUPC,\n            productID,\n            productNotes,\n            productPrice,\n            itemState,\n            distributorID,\n            retailerID,\n            consumerID\n        );\n    }\n}\n",
  "sourcePath": "/home/marceljm/blockchain-projects/suply-chain-dapp/contracts/coffeebase/SupplyChain.sol",
  "compiler": {
    "name": "solc",
    "version": "0.8.15+commit.e14f2714.Emscripten.clang"
  },
  "schemaVersion": "3.4.8",
  "updatedAt": "2022-07-29T02:21:13.938Z",
  "devdoc": {
    "kind": "dev",
    "methods": {},
    "version": 1
  },
  "userdoc": {
    "kind": "user",
    "methods": {},
    "version": 1
  }
}